{
  "contractName": "Insure360",
  "abi": [
    {
      "inputs": [],
      "stateMutability": "nonpayable",
      "type": "constructor"
    },
    {
      "inputs": [
        {
          "internalType": "string",
          "name": "scheme",
          "type": "string"
        },
        {
          "internalType": "string",
          "name": "schemeid",
          "type": "string"
        },
        {
          "internalType": "string",
          "name": "farmername",
          "type": "string"
        },
        {
          "internalType": "string",
          "name": "farmerid",
          "type": "string"
        },
        {
          "internalType": "string",
          "name": "bankaccount",
          "type": "string"
        },
        {
          "internalType": "string",
          "name": "premiumaccount",
          "type": "string"
        },
        {
          "internalType": "string",
          "name": "date",
          "type": "string"
        },
        {
          "internalType": "string",
          "name": "farmeremail",
          "type": "string"
        }
      ],
      "name": "applyScheme",
      "outputs": [],
      "stateMutability": "nonpayable",
      "type": "function"
    },
    {
      "inputs": [],
      "name": "viewSchemes",
      "outputs": [
        {
          "internalType": "string[]",
          "name": "",
          "type": "string[]"
        },
        {
          "internalType": "string[]",
          "name": "",
          "type": "string[]"
        },
        {
          "internalType": "string[]",
          "name": "",
          "type": "string[]"
        },
        {
          "internalType": "string[]",
          "name": "",
          "type": "string[]"
        },
        {
          "internalType": "string[]",
          "name": "",
          "type": "string[]"
        },
        {
          "internalType": "string[]",
          "name": "",
          "type": "string[]"
        },
        {
          "internalType": "string[]",
          "name": "",
          "type": "string[]"
        },
        {
          "internalType": "uint256[]",
          "name": "",
          "type": "uint256[]"
        },
        {
          "internalType": "string[]",
          "name": "",
          "type": "string[]"
        },
        {
          "internalType": "uint256[]",
          "name": "",
          "type": "uint256[]"
        }
      ],
      "stateMutability": "view",
      "type": "function",
      "constant": true
    },
    {
      "inputs": [
        {
          "internalType": "uint256",
          "name": "id1",
          "type": "uint256"
        },
        {
          "internalType": "uint256",
          "name": "status",
          "type": "uint256"
        }
      ],
      "name": "claimScheme",
      "outputs": [],
      "stateMutability": "nonpayable",
      "type": "function"
    }
  ],
  "bytecode": "0x608060405234801561001057600080fd5b506000600a819055506114eb806100286000396000f3fe608060405234801561001057600080fd5b50600436106100415760003560e01c806311f700a3146100465780635721ea7f1461006d578063c8259e2f14610089575b600080fd5b61004e6100a5565b6040516100649a99989796959493929190610cd0565b60405180910390f35b61008760048036038101906100829190610df2565b610824565b005b6100a3600480360381019061009e9190610f67565b610895565b005b606080606080606080606080606080600060016002600360046005600660076009600889805480602002602001604051908101604052809291908181526020016000905b828210156101955783829060005260206000200180546101089061112c565b80601f01602080910402602001604051908101604052809291908181526020018280546101349061112c565b80156101815780601f1061015657610100808354040283529160200191610181565b820191906000526020600020905b81548152906001019060200180831161016457829003601f168201915b5050505050815260200190600101906100e9565b50505050995088805480602002602001604051908101604052809291908181526020016000905b828210156102685783829060005260206000200180546101db9061112c565b80601f01602080910402602001604051908101604052809291908181526020018280546102079061112c565b80156102545780601f1061022957610100808354040283529160200191610254565b820191906000526020600020905b81548152906001019060200180831161023757829003601f168201915b5050505050815260200190600101906101bc565b50505050985087805480602002602001604051908101604052809291908181526020016000905b8282101561033b5783829060005260206000200180546102ae9061112c565b80601f01602080910402602001604051908101604052809291908181526020018280546102da9061112c565b80156103275780601f106102fc57610100808354040283529160200191610327565b820191906000526020600020905b81548152906001019060200180831161030a57829003601f168201915b50505050508152602001906001019061028f565b50505050975086805480602002602001604051908101604052809291908181526020016000905b8282101561040e5783829060005260206000200180546103819061112c565b80601f01602080910402602001604051908101604052809291908181526020018280546103ad9061112c565b80156103fa5780601f106103cf576101008083540402835291602001916103fa565b820191906000526020600020905b8154815290600101906020018083116103dd57829003601f168201915b505050505081526020019060010190610362565b50505050965085805480602002602001604051908101604052809291908181526020016000905b828210156104e15783829060005260206000200180546104549061112c565b80601f01602080910402602001604051908101604052809291908181526020018280546104809061112c565b80156104cd5780601f106104a2576101008083540402835291602001916104cd565b820191906000526020600020905b8154815290600101906020018083116104b057829003601f168201915b505050505081526020019060010190610435565b50505050955084805480602002602001604051908101604052809291908181526020016000905b828210156105b45783829060005260206000200180546105279061112c565b80601f01602080910402602001604051908101604052809291908181526020018280546105539061112c565b80156105a05780601f10610575576101008083540402835291602001916105a0565b820191906000526020600020905b81548152906001019060200180831161058357829003601f168201915b505050505081526020019060010190610508565b50505050945083805480602002602001604051908101604052809291908181526020016000905b828210156106875783829060005260206000200180546105fa9061112c565b80601f01602080910402602001604051908101604052809291908181526020018280546106269061112c565b80156106735780601f1061064857610100808354040283529160200191610673565b820191906000526020600020905b81548152906001019060200180831161065657829003601f168201915b5050505050815260200190600101906105db565b505050509350828054806020026020016040519081016040528092919081815260200182805480156106d857602002820191906000526020600020905b8154815260200190600101908083116106c4575b5050505050925081805480602002602001604051908101604052809291908181526020016000905b828210156107ac57838290600052602060002001805461071f9061112c565b80601f016020809104026020016040519081016040528092919081815260200182805461074b9061112c565b80156107985780601f1061076d57610100808354040283529160200191610798565b820191906000526020600020905b81548152906001019060200180831161077b57829003601f168201915b505050505081526020019060010190610700565b505050509150808054806020026020016040519081016040528092919081815260200182805480156107fd57602002820191906000526020600020905b8154815260200190600101908083116107e9575b50505050509050995099509950995099509950995099509950995090919293949596979899565b60005b60078054905081101561089057600781815481106108485761084761115d565b5b9060005260206000200154830361087d57816008828154811061086e5761086d61115d565b5b90600052602060002001819055505b8080610888906111bb565b915050610827565b505050565b6000889080600181540180825580915050600190039060005260206000200160009091909190915090816108c991906113af565b506001879080600181540180825580915050600190039060005260206000200160009091909190915090816108fe91906113af565b5060028690806001815401808255809150506001900390600052602060002001600090919091909150908161093391906113af565b5060038590806001815401808255809150506001900390600052602060002001600090919091909150908161096891906113af565b5060048490806001815401808255809150506001900390600052602060002001600090919091909150908161099d91906113af565b506005839080600181540180825580915050600190039060005260206000200160009091909190915090816109d291906113af565b50600682908060018154018082558091505060019003906000526020600020016000909190919091509081610a0791906113af565b506001600a6000828254610a1b9190611481565b925050819055506007600a549080600181540180825580915050600190039060005260206000200160009091909190915055600860009080600181540180825580915050600190039060005260206000200160009091909190915055600981908060018154018082558091505060019003906000526020600020016000909190919091509081610aab91906113af565b505050505050505050565b600081519050919050565b600082825260208201905092915050565b6000819050602082019050919050565b600081519050919050565b600082825260208201905092915050565b60005b83811015610b1c578082015181840152602081019050610b01565b60008484015250505050565b6000601f19601f8301169050919050565b6000610b4482610ae2565b610b4e8185610aed565b9350610b5e818560208601610afe565b610b6781610b28565b840191505092915050565b6000610b7e8383610b39565b905092915050565b6000602082019050919050565b6000610b9e82610ab6565b610ba88185610ac1565b935083602082028501610bba85610ad2565b8060005b85811015610bf65784840389528151610bd78582610b72565b9450610be283610b86565b925060208a01995050600181019050610bbe565b50829750879550505050505092915050565b600081519050919050565b600082825260208201905092915050565b6000819050602082019050919050565b6000819050919050565b610c4781610c34565b82525050565b6000610c598383610c3e565b60208301905092915050565b6000602082019050919050565b6000610c7d82610c08565b610c878185610c13565b9350610c9283610c24565b8060005b83811015610cc3578151610caa8882610c4d565b9750610cb583610c65565b925050600181019050610c96565b5085935050505092915050565b6000610140820190508181036000830152610ceb818d610b93565b90508181036020830152610cff818c610b93565b90508181036040830152610d13818b610b93565b90508181036060830152610d27818a610b93565b90508181036080830152610d3b8189610b93565b905081810360a0830152610d4f8188610b93565b905081810360c0830152610d638187610b93565b905081810360e0830152610d778186610c72565b9050818103610100830152610d8c8185610b93565b9050818103610120830152610da18184610c72565b90509b9a5050505050505050505050565b6000604051905090565b600080fd5b600080fd5b610dcf81610c34565b8114610dda57600080fd5b50565b600081359050610dec81610dc6565b92915050565b60008060408385031215610e0957610e08610dbc565b5b6000610e1785828601610ddd565b9250506020610e2885828601610ddd565b9150509250929050565b600080fd5b600080fd5b7f4e487b7100000000000000000000000000000000000000000000000000000000600052604160045260246000fd5b610e7482610b28565b810181811067ffffffffffffffff82111715610e9357610e92610e3c565b5b80604052505050565b6000610ea6610db2565b9050610eb28282610e6b565b919050565b600067ffffffffffffffff821115610ed257610ed1610e3c565b5b610edb82610b28565b9050602081019050919050565b82818337600083830152505050565b6000610f0a610f0584610eb7565b610e9c565b905082815260208101848484011115610f2657610f25610e37565b5b610f31848285610ee8565b509392505050565b600082601f830112610f4e57610f4d610e32565b5b8135610f5e848260208601610ef7565b91505092915050565b600080600080600080600080610100898b031215610f8857610f87610dbc565b5b600089013567ffffffffffffffff811115610fa657610fa5610dc1565b5b610fb28b828c01610f39565b985050602089013567ffffffffffffffff811115610fd357610fd2610dc1565b5b610fdf8b828c01610f39565b975050604089013567ffffffffffffffff81111561100057610fff610dc1565b5b61100c8b828c01610f39565b965050606089013567ffffffffffffffff81111561102d5761102c610dc1565b5b6110398b828c01610f39565b955050608089013567ffffffffffffffff81111561105a57611059610dc1565b5b6110668b828c01610f39565b94505060a089013567ffffffffffffffff81111561108757611086610dc1565b5b6110938b828c01610f39565b93505060c089013567ffffffffffffffff8111156110b4576110b3610dc1565b5b6110c08b828c01610f39565b92505060e089013567ffffffffffffffff8111156110e1576110e0610dc1565b5b6110ed8b828c01610f39565b9150509295985092959890939650565b7f4e487b7100000000000000000000000000000000000000000000000000000000600052602260045260246000fd5b6000600282049050600182168061114457607f821691505b602082108103611157576111566110fd565b5b50919050565b7f4e487b7100000000000000000000000000000000000000000000000000000000600052603260045260246000fd5b7f4e487b7100000000000000000000000000000000000000000000000000000000600052601160045260246000fd5b60006111c682610c34565b91507fffffffffffffffffffffffffffffffffffffffffffffffffffffffffffffffff82036111f8576111f761118c565b5b600182019050919050565b60008190508160005260206000209050919050565b60006020601f8301049050919050565b600082821b905092915050565b6000600883026112657fffffffffffffffffffffffffffffffffffffffffffffffffffffffffffffffff82611228565b61126f8683611228565b95508019841693508086168417925050509392505050565b6000819050919050565b60006112ac6112a76112a284610c34565b611287565b610c34565b9050919050565b6000819050919050565b6112c683611291565b6112da6112d2826112b3565b848454611235565b825550505050565b600090565b6112ef6112e2565b6112fa8184846112bd565b505050565b5b8181101561131e576113136000826112e7565b600181019050611300565b5050565b601f8211156113635761133481611203565b61133d84611218565b8101602085101561134c578190505b61136061135885611218565b8301826112ff565b50505b505050565b600082821c905092915050565b600061138660001984600802611368565b1980831691505092915050565b600061139f8383611375565b9150826002028217905092915050565b6113b882610ae2565b67ffffffffffffffff8111156113d1576113d0610e3c565b5b6113db825461112c565b6113e6828285611322565b600060209050601f8311600181146114195760008415611407578287015190505b6114118582611393565b865550611479565b601f19841661142786611203565b60005b8281101561144f5784890151825560018201915060208501945060208101905061142a565b8683101561146c5784890151611468601f891682611375565b8355505b6001600288020188555050505b505050505050565b600061148c82610c34565b915061149783610c34565b92508282019050808211156114af576114ae61118c565b5b9291505056fea2646970667358221220ddbc52691750e5638c6f1c4869e8b6b591e937aa7643a06ed25d603699a7103464736f6c63430008130033",
  "immutableReferences": {},
  "source": "// SPDX-License-Identifier: MIT\npragma solidity >=0.4.22 <0.9.0;\n\ncontract Insure360 {\n\n  string[] _schemes;\n  string[] _schemeid;\n  string[] _farmername;\n  string[] _farmerid;\n  string[] _bankaccount;\n  string[] _premiumamount;\n  string[] _date;\n  uint[] _ids;\n  uint[] _statuses;\n  string[] _farmeremails;\n\n  uint id;\n  constructor(){\n    id=0;\n  }\n\n  function applyScheme(string memory scheme,string memory schemeid,string memory farmername,string memory farmerid,string memory bankaccount,string memory premiumaccount,string memory date,string memory farmeremail) public {\n    _schemes.push(scheme);\n    _schemeid.push(schemeid);\n    _farmername.push(farmername);\n    _farmerid.push(farmerid);\n    _bankaccount.push(bankaccount);\n    _premiumamount.push(premiumaccount);\n    _date.push(date);\n    id+=1;\n    _ids.push(id);\n    _statuses.push(0);\n    _farmeremails.push(farmeremail);\n  }\n\n  function viewSchemes() public view returns(string[] memory,string[] memory,string[] memory,string[] memory,string[] memory,string[] memory,string[] memory,uint[] memory,string[] memory,uint[] memory){\n    return(_schemes,_schemeid,_farmername,_farmerid,_bankaccount,_premiumamount,_date,_ids,_farmeremails,_statuses);\n  }\n\n  function claimScheme(uint id1,uint status) public{\n    uint i;\n\n    for(i=0;i<_ids.length;i++){\n      if(id1==_ids[i])\n        _statuses[i]=status;\n    }\n  }\n\n}\n",
  "sourcePath": "/Users/ms/Downloads/FYP/contracts/Insure360.sol",
  "compiler": {
    "name": "solc",
    "version": "0.8.19+commit.7dd6d404.Emscripten.clang"
  },
  "schemaVersion": "3.4.16",
  "updatedAt": "2024-03-14T10:09:14.891Z",
  "networkType": "ethereum",
  "devdoc": {
    "kind": "dev",
    "methods": {},
    "version": 1
  },
  "userdoc": {
    "kind": "user",
    "methods": {},
    "version": 1
  }
}